:020000040800F2
:10000000C008002001010008090100080B010008D8
:100010000D0100080F010008110100080000000098
:1000200000000000000000000000000013010008B4
:100030001501000800000000170100085523000802
:100040001B0100081B0100081B0100081B01000820
:100050001B0100081B0100081B010008ED0D000832
:100060001B0100081B0100081B0100080109000812
:100070001B0100081B0100081B0100081B010008F0
:100080001B0100081B0100081B0100081B010008E0
:100090001B0100081B0100081B0100081B010008D0
:1000A0001B0100081B0100081B0100081B010008C0
:1000B0001B0100081B0100081B0100081B010008B0
:1000C0001B0100081B0100081B0100081B010008A0
:1000D0001B0100081B0100081B0100081B01000890
:1000E000610C00081B0100081B010008DFF80CD0A0
:1000F00000F0B4F800480047192C0008C0080020A0
:100100000648804706480047FEE7FEE7FEE7FEE7B1
:10011000FEE7FEE7FEE7FEE7FEE7FEE79D230008B9
:10012000ED00000830B480EA010202F0004530F032
:10013000004221F0004013D090B1C30DD40DC2F3A2
:100140001601C0F31600E41A41F4000140F4000265
:100150007D34914201D3641C00E04900002C02DA96
:1001600030BC002070474FF400000023914201D3BF
:10017000891A034340084FEA4101F7D151B1914236
:1001800002D14FF0004105E002D24FF0010101E041
:100190006FF0010103EBC450284430BC00F026B8D6
:1001A00096230022114600F02AB80000002801DB47
:1001B000C0F10040002901DBC1F1004181427047DC
:1001C00030B50B46014600202022012409E021FA27
:1001D00002F59D4205D303FA02F5491B04FA02F524
:1001E0002844151EA2F10102F1DC30BD0029A8BF90
:1001F0007047401C490008BF20F00100704710B450
:10020000B0FA80FC00FA0CF050EA010404BF10BC04
:10021000704749B1CCF1200421FA04F411FA0CF131
:1002200018BF012121430843A3EB0C01CB1D4FEA6A
:1002300000614FEA102042BF002010BC704700EB65
:10024000C35010440029A4BF10BC7047401C490093
:1002500008BF20F0010010BC70470000064C074D9D
:1002600006E0E06840F0010394E807009847103486
:10027000AC42F6D3FFF73EFF44390008643900086A
:1002800010B54E48808840F26C7188427EDD4B4844
:10029000808840F69401884278DA4848C08840F265
:1002A0006C718842F2DD4548C08840F6940188426E
:1002B000F2DA4348007850B90020424908604249C8
:1002C000086042490860424908603D4908703B495E
:1002D00009884FF47A7201FB02F0C11700EB11514B
:1002E000091301F57A71374A12681144354A1160D1
:1002F000324949884FF4FA7201FB02F0C11700EB52
:100300001151091301F57A712F4A126811442E4ACE
:1003100011602A4989884FF47A7201FB02F0C117F3
:1003200000EB1151091301F57A71284A1268114442
:10033000264A11602149C9884FF47A7201FB02F004
:10034000C11700EB1151091301F57A71204A1268A7
:1003500011441F4A11601A480078401C184908705F
:10036000084600783C2827DB16480068097890FB8F
:10037000F1F018490880144800681149097890FB89
:10038000F1F0144948801148006800E014E00C497D
:10039000097890FBF1F00F49888010460068084901
:1003A000097890FBF1F00B49C88000200A490870D9
:1003B0000349087001F080FA10BD0000060000201B
:1003C00016000020180000201C0000202000002043
:1003D000240000200E0000200400002021B18268CB
:1003E00042F00102826003E0826822F00102826032
:1003F000704721B1826842F48072826003E08268B3
:1004000022F480728260704700B591B001210846E5
:1004100001F03EFB04200890002007900F90504808
:1004200006904FF480600C9080200A9020200D9060
:100430004C48059080150B90002009904FF4805097
:100440000E9005A9484800F0B2FA01220221464860
:1004500000F0A4FA0B20012181404209920002F130
:10046000E022C2F8001100BF01213F4800F074FAF9
:1004700001214FF4017001F02BFB0F20ADF840007B
:1004800000208DF8430010A9384800F053FE0020EA
:100490008DF8050003904FF420200290002000907A
:1004A00004208DF8100001208DF8040069462D48C5
:1004B0004C3800F075F801212A484C38FFF78EFFC0
:1004C000012128484C38FFF794FF4FF4404001F0D9
:1004D000D3FA07230122002122484C3800F088F883
:1004E0000723022201211F484C3800F081F807231E
:1004F000032202211B484C3800F07AF8072304221B
:10050000032118484C3800F073F816484C3800F0B6
:10051000CBF800BF13484C3800F037F80028F9D169
:1005200010484C3800F0C5F800BF0E484C3800F0B9
:100530002CF80028F9D101210A484C3800F01AF8AB
:1005400040F2D4500A49088040F2DC5048804FF411
:100550007A70888040F2D450C88011B000BD00008D
:10056000060000204C240140080002400008014021
:100570000E00002021B1826842F48012826003E004
:10058000826822F4801282607047014600208A68E7
:1005900002F004020AB1012000E0002070470000D0
:1005A00030B502460020002350680F4C20400D79E2
:1005B0000C6844EA05242043506090680B4C2040AE
:1005C000D1E902542C434D7944EA4504204390601C
:1005D000D06A20F470000C7C641EE4B2234340EA2D
:1005E0000350D06230BD0000FFFEF0FFFDF7F1FFC9
:1005F000F0B504460D4600200021092D11DDE0680C
:10060000A5F10A0606EB4607072606FA07F1884316
:10061000A5F10A0606EB460603FA06F10843E06078
:100620000CE0206905EB4507072606FA07F1884329
:1006300005EB450603FA06F108432061072A0FDAA5
:10064000606B561E06EB86071F2606FA07F18843E5
:10065000561E06EB860605FA06F10843606322E0A3
:100660000D2A0FDA206BD61F06EB86071F2606FA27
:1006700007F18843D61F06EB860605FA06F1084304
:10068000206310E0E06AA2F10D0606EB86071F2644
:1006900006FA07F18843A2F10D0606EB860605FA75
:1006A00006F10843E062F0BD816841F00801816015
:1006B0007047816841F00401816070470FB581B0D7
:1006C00000200090BDF80400BDF80810884208DD45
:1006D000BDF80400BDF80C10884202DA40F2DC508C
:1006E0000190BDF80400BDF80810884209DABDF891
:1006F000080040F2DC51081ABDF80410084480B22A
:100700000190BDF80400BDF80C10884209DDBDF869
:10071000080040F2DC51081ABDF80410081A80B233
:100720000190BDF80400BDF81010884202DCBDF84D
:10073000100001E0BDF804000190BDF80400BDF810
:100740001810884202DBBDF8180001E0BDF8040073
:100750000190BDF804000090BDF8000005B000BD98
:100760000EB50121092001F0B3F94FF47040ADF846
:10077000080004208DF80B0003208DF80A0002A960
:10078000354800F0D7FC4FF40050009000208DF861
:1007900004000C208DF8050001208DF80600684645
:1007A00000F0D4FB4FF48050009000208DF804003E
:1007B0000C208DF8050001208DF80600684600F039
:1007C000C5FB4FF48040009000208DF804000C2001
:1007D0008DF8050001208DF80600684600F0B6FB94
:1007E0004FF40040009000208DF804000C208DF89C
:1007F000050001208DF80600684600F0A7FB0C21DB
:10080000012000F077FC0D21012000F073FC0E2187
:10081000012000F06FFC0F21012000F06BFC4FF471
:10082000805000F079FB4FF4005000F075FB4FF45E
:10083000804000F071FB4FF4004000F06DFB282079
:1008400000F01F02012191404209920002F1E022D2
:10085000C2F8001100BF0EBD000C0140074880889F
:1008600006280ADA0548C088062806DA03484088C0
:10087000062802DA012002490870704706000020AD
:100880000400002008B500F04DFE0023124A19466E
:10089000012000F003FF082310A200211C2000F01B
:1008A000E2FF0023104A1946792000F022FF0623B8
:1008B0000EA200216F2000F0D6FF062002230022A6
:1008C000012100906C2000F091FF082308A2032171
:1008D000102000F0C8FF08BD8238000820526F6267
:1008E0006F466C79000000006238000825000000A7
:1008F000436F6E6E656374696E672E2E2E00000066
:1009000010B5022000F034F8012811D1FFF7A6FF3E
:100910000848007808B1FFF7B3FC012000F0DAFFC7
:10092000054801F0B7FA00F095FC022000F006F847
:1009300010BD0000040000208800002000F080515D
:1009400011B10349086001E00249486070470000A6
:10095000040402400000024021B1026842F001029A
:10096000026004E002684FF6FE731A4002607047AE
:1009700001460020002201F0805313B1054B1A6894
:1009800001E0054B1A6802EA01030BB1012000E007
:100990000020704700040240000002401AB10368C2
:1009A0000B43036002E003688B430360704710B59C
:1009B0000022026847F6F0739A430C6A8B6823435F
:1009C0000C6923434C6923438C692343CC6923433B
:1009D0004C6A23438C6A23431A430260CB6843600A
:1009E0000B6883604B68C36010BD000008B506202B
:1009F00000901148828804230121202000F0F6FE97
:100A0000062000900C48028804230121602000F099
:100A1000EDFE062000900848C28804230221202011
:100A200000F0E4FE062000900348428804230221DF
:100A3000602000F0DBFE08BD2E00002008B5424813
:100A4000007800287DD001F01FF900203E49087091
:100A50003E48B0F9020000280CDA06233CA21946F1
:100A6000002000F000FF39484088404200B237497A
:100A7000488005E0062338A21946002000F0F3FE66
:100A80003248B0F9040000280CDA062334A21946D3
:100A9000402000F0E8FE2D488088404200B22B49FB
:100AA000888005E0062330A21946402000F0DBFED6
:100AB0002648B0F9060000280CDA06232CA20521EE
:100AC000402000F0D0FE2148C088404200B21F49BB
:100AD000C88005E0062328A20521402000F0C3FEBF
:100AE000062000901948028804230521202000F0E8
:100AF0007DFE062000901548B0F90420022306214F
:100B0000602000F073FE062000901048B0F9062027
:100B100002230521602000F069FE062000900B48AA
:100B2000B0F9022002230621202000F05FFE0620FB
:100B300000900648B0F9082002230721202000F089
:100B400055FEFFF753FF08BD4B0000207C0000203E
:100B50005941573A2D0000005941573A20000000F2
:100B6000524F4C3A2D000000524F4C3A20000000EA
:100B70005049543A2D0000005049543A20000000DA
:100B800010B500F0CFFC062323A20021084600F098
:100B90006AFE062323A20121002000F064FE062342
:100BA00022A20121402000F05EFE062321A20221A4
:100BB000002000F058FE062320A20221402000F071
:100BC00052FE06231FA20421002000F04CFE062343
:100BD00014A20521002000F046FE062313A20521E1
:100BE000402000F040FE062312A21946002000F02B
:100BF0003AFE062311A21946402000F034FE0623D7
:100C000013A20721002000F02EFE062312A20721C6
:100C1000402000F028FE10BD53454E44202D2D2DC0
:100C20003E0000005448523A000000005049543A37
:100C3000000000005941573A00000000524F4C3A62
:100C4000000000004241434B203C2D2D2D000000B0
:100C5000414C543A000000004D4F443A000000005F
:100C600010B54FF4804000F05DF958B35B48006860
:100C700000F4804008BB0A2001F09AFF5748006842
:100C800000F48040C8B900BF5448006800F48040B8
:100C90000028F9D000F0BDFF51484088642800DBEF
:100CA00010BD5048007880F001004E4908700820BF
:100CB00000F010FE4C4801F0EDF84FF4804000F0D9
:100CC0002BF988E04FF4004000F02CF930B3434892
:100CD000006800F40040E0B90A2001F069FF3F48D5
:100CE000006800F40040A0B900BF3C48006800F470
:100CF00000400028F9D000F065FF3A48007880F005
:100D0000020038490870082000F0E4FD364801F080
:100D1000C1F84FF4004000F0FFF85CE04FF40050E1
:100D200000F000F960B32D48006800F4005010BBDB
:100D30000A2001F03DFF2948006800F40050A0B9E6
:100D400000BF2648006800F400500028F9D000F0E9
:100D500046FF2448007840F004002249087008202B
:100D600000F0B8FD204801F095F81E48007820F00A
:100D700004001C4908704FF4005000F0CDF82AE040
:100D80004FF4805000F0CEF828B31448006800F407
:100D90008050E0B90A2001F00BFF1048006800F411
:100DA0008050A0B900BF0D48006800F480500028B2
:100DB000F9D000F021FF0B48007880F008000949C5
:100DC0000870082000F086FD074801F063F84FF432
:100DD000805000F0A1F800BF62E70000080C01405D
:100DE00006000020280000208800002010B53548AB
:100DF000006840F0010033490860072001F036F92F
:100E0000314908700846007800F02000D8B100F0A1
:100E100021FF2E48007800F0010020B14FF48070CF
:100E200000F0D2FA03E04FF4807000F0F3FA2021D2
:100E3000272001F05FF9FF21E12001F05BF924A0F8
:100E400001F0ECFD39E02048007800F0400080B16E
:100E5000012023490870234801F000F801202249AD
:100E600008704021272001F045F920A001F0D6FDAF
:100E700023E01548007800F01000F0B12048018808
:100E80000088401C1E4A1080642905DD01201D4990
:100E900008700020124908704FF4807000F06EFA5C
:100EA00000F0D8FE1021272001F024F9FF21E120D5
:100EB00001F020F914A001F0B1FD022000F02CF89F
:100EC00010BD0000140C01404A0000202800002042
:100ED00053656E74204F4B212121210D0A00000023
:100EE0004C000020A00400204B00002052656365E8
:100EF000697665204F4B212121210D0A0000000059
:100F00003A0000204D0000204D41585F5254204FC0
:100F10004B2121210D0A00000149086070470000A3
:100F200014040140014600200022074B1B6803EA1D
:100F30000102054B14331B680B4013B10AB10120A9
:100F400000E0002070470000000401400021234918
:100F50008279002A3AD00A46126803689A430B46FF
:100F60001A600A1D126803689A430B1D1A60027901
:100F700011440A6803681A430A60184A0832126862
:100F800003689A43154B08331A601A1D12680368E8
:100F90009A43124B0C331A604279102A0ED11A1F51
:100FA000126803681A430D4B08331A601A1D126841
:100FB00003681A43094B0C331A600DE00749427964
:100FC00011440A6803681A430A6005E00279114473
:100FD0000A6803689A430A607047000000040140F1
:100FE00030B5044604254FF4302000F06FF8054674
:100FF000042D17D10C48006940F002000A4908612D
:1010000008464461006940F0400008614FF4302018
:1010100000F05CF805460448006941F6FD7108409F
:1010200001490861284630BD0020024004200B49D8
:10103000C96801F0010109B101200EE00749C96842
:1010400001F0040109B1022007E00449C96801F078
:10105000100109B1032000E0042070470020024085
:101060000348006940F080000149086170470000B2
:101070000020024070B504460D460426F00200F040
:1010800025F80646042E11D10948006940F00100F8
:10109000074908612580F00200F018F80646044868
:1010A000006941F6FE71084001490861304670BD93
:1010B00000200240024803494860034848607047E6
:1010C0002301674500200240AB89EFCD00B5024601
:1010D0000423FFF7ABFF034603E0FFF7A7FF034638
:1010E000521E012B01D1002AF7D102B9052318465F
:1010F00000BD000030B500228B071C0F0F2303FA40
:1011000004F20B4B8C1053F824309343084C8D1091
:1011100044F8253023468C1053F824308C07240FD4
:1011200000FA04F42343024C8D1044F8253030BDFE
:10113000080001402DE9F04102460025002600206C
:1011400000230024002791F803C00CF00F0591F84C
:1011500003C00CF0100CBCF1000F03D091F802C0DA
:101160004CEA050591F800C0BCF1000F31D01468BD
:1011700000202BE04FF0010C0CFA00F3B1F800C096
:101180000CEA03069E4220D183004FF00F0C0CFAAC
:1011900003F7BC4305FA03FC4CEA040491F803C0CE
:1011A000BCF1280F06D14FF0010C0CFA00FCC2F87C
:1011B00014C00AE091F803C0BCF1480F05D14FF00C
:1011C000010C0CFA00FCC2F810C0401C0828D1D356
:1011D0001460B1F800C0BCF1FF0F34DD546800208A
:1011E0002EE000F1080C4FF0010808FA0CF3B1F8FA
:1011F00000C00CEA03069E4221D183004FF00F0C81
:101200000CFA03F7BC4305FA03FC4CEA040491F81A
:1012100003C0BCF1280F05D100F1080C08FA0CF846
:10122000C2F8148091F803C0BCF1480F07D100F157
:10123000080C4FF0010808FA0CF8C2F81080401CA6
:101240000828CED35460BDE8F08141617047016148
:101250007047000070B5154801880088401C134A8B
:101260001080642904D100201146088010490880AC
:101270000E480088FEF794FF04460D480088FEF7EC
:101280008FFF05462146FEF74DFF0A4908604FF0E3
:101290007E5108480068FEF789FF05D10120064904
:1012A000087000200549087070BD0000380000205B
:1012B0003A0000203C0000204D0000204C0000209F
:1012C00010B540210748FFF7C2FF80210548FFF70E
:1012D000BEFF80210348FFF7B8FF40210148FFF718
:1012E000B4FF10BD000C014010B540210548FFF7C8
:1012F000AEFF80210348FFF7A8FF80210148FFF7D8
:10130000A6FF10BD000C014010B540210348FFF7B7
:101310009EFF40210148FFF798FF10BD000C0140DF
:1013200008B50121082000F0D3FB4FF44070ADF860
:10133000000010208DF8030003208DF8020069469C
:101340000C48FFF7F7FE0121102000F0C1FB4FF41D
:101350000050ADF8000010208DF8030003208DF838
:10136000020069460448FFF7E5FE4FF4807000F084
:1013700005F808BD000C01400010014070B504469E
:101380002546B5F5807F06D0B5F5007F0FD0B5F5C1
:10139000005F12D105E04FF480710948FFF757FF55
:1013A0000CE04FF400510748FFF751FF06E04FF4FF
:1013B00000710348FFF74BFF00E000BF00BF70BDA6
:1013C000000C01400010014070B504462546B5F5FB
:1013D000807F06D0B5F5007F0FD0B5F5005F12D144
:1013E00005E04FF480710948FFF72FFF0CE04FF440
:1013F00000510748FFF729FF06E04FF4007103484A
:10140000FFF723FF00E000BF00BF70BD000C0140EC
:10141000001001400146B1F5807F06D0B1F5007F94
:1014200011D0B1F5005F15D106E00C4A126882F4C4
:1014300080720A4B1A600EE0094AD26882F40052A8
:10144000074BDA6007E0054A126882F40072034B2A
:101450001A6000E000BF00BF704700000C0C0140A4
:101460000010014010B500221146052000F025F8BB
:10147000044621464FF0FF3000F040F800220121E1
:10148000052000F01AF804462146072000F036F83F
:1014900001221146052000F010F8044621460B20D9
:1014A00000F02CF802221146052000F006F8044650
:1014B0002146282000F022F810BDF0B503460C4666
:1014C00003F00701C1F10700042801D9042001E05D
:1014D000C1F107000646081D072801D2002000E0E0
:1014E000C81E05460120B040401E2040A8400127EC
:1014F000AF407F1E17403843F0BD000010B50028F4
:1015000007DA0A07140E054A00F00F031B1FD45414
:1015100003E00A07130E024A135410BD18ED00E051
:1015200000E400E070B5002418E004F1B0000021F0
:1015300000F0B6F90021084600F0B2F900211020B1
:1015400000F0AEF9002505E00121002000F0A8F927
:10155000681CC5B2802DF7DB601CC4B2082CE4DB2C
:1015600070BD000008B50121082000F0B1FAC020CC
:10157000ADF8000010208DF8030003208DF8020064
:1015800069463B48FFF7D6FDC0213948FFF75FFEAB
:10159000642001F00DFB0021AE2000F081F9002154
:1015A000084600F07DF90021102000F079F90021B3
:1015B000402000F075F90021B02000F071F9002101
:1015C000812000F06DF90021FF2000F069F9002171
:1015D000A12000F065F90021A62000F061F90021AA
:1015E000A82000F05DF900213F2000F059F900210A
:1015F000C82000F055F90021D32000F051F9002156
:10160000084600F04DF90021D52000F049F90021ED
:10161000802000F045F90021D82000F041F9002198
:10162000052000F03DF90021D92000F039F9002112
:10163000F12000F035F90021DA2000F031F9002125
:10164000122000F02DF90021DB2000F029F9002103
:10165000302000F025F900218D2000F021F9002133
:10166000142000F01DF90021AF2000F019F908BD89
:10167000000C014070B504460D4605F1B000002194
:1016800000F00EF9102141EA1410002100F008F9D1
:1016900004F00F00002100F003F970BD2DE9F041C6
:1016A00080460F4615461E4639464046FFF7E2FF84
:1016B000002407E005EB4611085D012100F0F0F879
:1016C000601CC4B2102CF5DB781CC1B24046FFF799
:1016D000D1FF002409E07100491C05EB0111085DF0
:1016E000012100F0DDF8601CC4B2102CF3DBBDE872
:1016F000F0812DE9F04180460F4615461E463946D9
:101700004046FFF7B7FF002407E005EB4611085DF0
:10171000012100F0C5F8601CC4B2072CF5DB781C71
:10172000C1B24046FFF7A6FF002409E07100491C42
:1017300005EB0111085D012100F0B2F8601CC4B294
:10174000072CF3DBBDE8F0812DE9F04707460E4694
:101750009046994600250024A8F12000C5B27F2FAD
:1017600002DD0027B01CC6B2B9F1080F24D1314602
:101770003846FFF77FFF002408E004EB0511194A03
:10178000505C012100F08CF8601CC4B2082CF4DB22
:10179000701CC1B23846FFF76DFF002409E004EB6E
:1017A000051108310F4A505C012100F079F8601CE6
:1017B000C4B2082CF3DB12E031463846FFF75AFF7B
:1017C00000240AE005EB4501074A02EB4101085DF0
:1017D000012100F065F8601CC4B2062CF2DBBDE804
:1017E000F0870000B22E00088A2C00082DE9F05F77
:1017F00006468A4691461D460A9F4FF0000B00247C
:101800002DE0281B401EC1B20A2001F033FAB9FBBB
:10181000F0F00A21B0FBF1F201FB1208BBF1000F5E
:1018200010D1681EA0420DDDB8F1000F08D107FBF2
:101830000461C8B23B4620225146FFF785FF0CE009
:101840004FF0010B08F13001CAB207FB0461C8B2C6
:101850003B465146FFF778FF00BF601CC4B2AC4264
:10186000CFDBBDE8F09F2DE9F04104460F46154659
:10187000984600260FE0AA5D434639462046FFF70A
:1018800063FF04EB0800C4B2782C02DD0024B81C0E
:10189000C7B2701CC6B2A85D0028ECD1BDE8F081CB
:1018A00070B504460D461DB1E0B201F0A1F802E0AA
:1018B000E0B201F087F870BD10B500F0C1F8062461
:1018C00022460249024800F049FC10BD9404002061
:1018D00000FE000818B50446534909884FF47A728F
:1018E00001FB02F0C11700EB1151091301F57A71E8
:1018F0004E4A1288891A01F2DC514D4A118040F299
:101900006C7011460090088840F24C4340F2FA5245
:1019100040F2BE51FEF7D2FE40F6B831081A4449F3
:101920000880414949884FF47A7201FB02F0C117DF
:1019300000EB1151091301F57A713C4A5288891A5A
:1019400001F2DC513A4A518040F26C70114600902D
:10195000488840F24C4340F2FA5240F2BE51FEF742
:10196000ADFE33494880304989884FF47A7201FBD3
:1019700002F0C11700EB11510913C1F57A712C4A1D
:1019800091802949C9884FF47A7201FB02F0C1178E
:1019900000EB1151091301F57A71244AD288891A92
:1019A00001F2DC51224AD18040F26C701146009065
:1019B000C88840F24C4340F2FA5240F2BE51FEF762
:1019C0007DFE1B49C8801B480078C82803DB002027
:1019D0001849087004E017480078401C1549087041
:1019E00015480470154800781349487010488079EC
:1019F00088700F48C079C8700D48007908710C488C
:101A0000407948710A48807888710948C078C8715F
:101A10000748007808720648407848720548007800
:101A20008872A520C87218BD060000200E00002094
:101A30002E0000202B00002088000020280000201D
:101A4000094800790949088009480079488009480F
:101A50000088888007484088C880064880880881B8
:101A60000448C0884881704740000020940400204A
:101A7000450000200E00002001460020034A506867
:101A800020F44040084350607047000000100240BE
:101A900029B1064A52690243044B5A6104E0034AE1
:101AA00052698243014B5A617047000000100240A6
:101AB00029B1064AD2690243044BDA6104E0034AC1
:101AC000D2698243014BDA61704700000010024086
:101AD00029B1064A92690243044B9A6104E0034A21
:101AE00092698243014B9A617047000000100240E6
:101AF00030B500210022002400232D4D6D6805F033
:101B00000C0121B1042905D0082923D105E0294D74
:101B1000056022E0274D05601FE0254D6D6805F446
:101B20007012234D6D6805F48034022505EB924256
:101B30001CB9214D554305600BE01D4D6D6805F442
:101B400000351DB11C4D5543056002E0194D55434C
:101B5000056002E0174D056000BF00BF144D6D68C1
:101B600005F0F0010909154D6B5C0568DD40456025
:101B70000F4D6D6805F4E061090A104D6B5C456816
:101B8000DD4085600A4D6D6805F46051C90A0B4D52
:101B90006B5C4568DD40C560054D6D6805F44041EE
:101BA000890B074D6B5CC568B5FBF3F5056130BD6E
:101BB0000010024000127A0000093D005000002091
:101BC0006000002010B5002406E0FF220021084636
:101BD00000F0C0FE601CC4B2042CF6DB10BD10B5D2
:101BE000002406E000221146FF2000F0B3FE601C36
:101BF000C4B2042CF6DB10BD10B5002406E00022B0
:101C0000FF21104600F0A6FE601CC4B2042CF6DBD7
:101C100010BD10B5002406E00022FF21084600F0A8
:101C200099FE601CC4B2042CF6DB10BD00B503465F
:101C3000002200BF0BE003FA02F000F0010010B137
:101C400000F054FE01E000F019FE501CC2B2082A58
:101C5000F1DB00BD10B50B48006840F001000949F8
:101C600008600F21202000F045FA7E21272000F097
:101C700041FA0448001F006840F001000149091FB3
:101C8000086010BD140C014026480078FF2848D198
:101C900024484078244908702248C078214989782E
:101CA00040EA0120214908801E480079000200B264
:101CB0001C4949790843642190FBF1F000B21B49AB
:101CC000488018488079000200B21649C979084353
:101CD000642190FBF1F000B21449C8801148007AE9
:101CE000000200B20F49497A0843642190FBF1F0E9
:101CF00000B20E4988800B48807A000200B2094980
:101D0000C97A0843642190FBF1F000B207490881C9
:101D10000448007B000200B20249497B08430349A2
:101D200048817047A00400202A0000207C00002089
:101D300010B50948007860B1FEF7A4FD07480078A7
:101D400028B1FEF71DFF00200349087010BD00F008
:101D500007F800BFFAE700004D0000204C0000200B
:101D60000EB500F0C7F801210920FFF7B1FE0120F0
:101D7000ADF8080010208DF80B0003208DF80A0044
:101D800002A93348FFF7D6F90220ADF80800482031
:101D90008DF80B0003208DF80A0002A92C48FFF7EC
:101DA000C9F90220009001208DF8060000208DF86E
:101DB00004000C208DF805006846FFF7C7F80121E4
:101DC0000846FFF797F90720012181404209920058
:101DD00002F1E022C2F8001100BF1D481430006873
:101DE00040F001001A49143108600321232000F05B
:101DF00081F905221749302000F054F905221649CF
:101E00002A2000F04FF9FA21242000F073F9012173
:101E1000212000F06FF90121222000F06BF9272129
:101E2000262000F067F91E21252000F063F920210B
:101E3000312000F05FF90F21202000F05BF9044809
:101E40001030006840F001000149103108600EBDFB
:101E5000000C0140400000204500002010B5044661
:101E60000B48006840F00100094908602022214623
:101E7000612000F0D3F8FF21E22000F03BF9044894
:101E8000001F006840F001000149091F086010BDF3
:101E9000140C014010B504460F48006840F00100E2
:101EA0000D49086020222146A02000F0FBF80E21F9
:101EB000202000F01FF97E21272000F01BF90648A2
:101EC000001F006840F001000349091F086001205D
:101ED00000F06EFE10BD0000140C014021B102881C
:101EE00042F04002028004E002884FF6BF731A40BD
:101EF0000280704700B587B001210420FFF7E8FD9C
:101F0000E020ADF8040018208DF8070003208DF8BC
:101F1000060001A91B48FFF70DF91020ADF80400D9
:101F20008DF8070003208DF8060001A91548FFF77A
:101F300001F901210803FFF7CBFD0020ADF80800EF
:101F40004FF48270ADF80A000020ADF80C00ADF837
:101F50000E00ADF810004FF40070ADF8120018201C
:101F6000ADF814000020ADF816000720ADF81800F9
:101F700002A9054800F018F801210348FFF7AEFF59
:101F800007B000BD000801400030014002460020BB
:101F900013890B400BB1012000E00020704701467F
:101FA000888970478181704710B50022028802F449
:101FB00041520B884C8823438C882343CC8823438D
:101FC0000C8923434C8923438C892343CC892343A5
:101FD0001A430280838B4FF2FF74234083830B8A62
:101FE000038210BD10B5044600BF02210A48FFF766
:101FF000CDFF0028F9D021460748FFF7D3FF00BFE7
:1020000001210548FFF7C2FF0028F9D00248FFF779
:10201000C6FFC0B210BD00000030014070B50646DA
:102020000C4615460F48006840F010000D49086046
:102030003046FFF7D7FF0C49087006E00020FFF795
:10204000D1FF2070641C681EC5B2002DF6D1054872
:10205000001F006840F010000249091F0860024894
:10206000007870BD140801402900002070B50446B6
:102070000B48006840F01000094908602046FFF74F
:10208000B1FF0020FFF7AEFF05460548001F0068BE
:1020900040F010000249091F0860284670BD00008A
:1020A0001408014070B506460C4615460F480068F6
:1020B00040F010000D4908603046FFF793FF0C49CF
:1020C000087005E02078FFF78DFF641C681EC5B21C
:1020D000002DF7D10548001F006840F010000349AB
:1020E000091F08600248007870BD00001408014014
:1020F0002900002070B505460C460C48006840F0E9
:1021000010000A4908602846FFF76CFF084908706C
:102110002046FFF767FF0548001F006840F01000E9
:102120000249091F08600248007870BD1408014088
:102130002900002030B503460C461546002207E072
:10214000184600F008F824F812009B1C501C82B2BC
:10215000AA42F5DB30BD0146088870472DE9F05FE3
:1021600080468A461746B8F1006F02D3334880454F
:1021700001D3BDE8F09FFEF79DFFA8F1006B4FEA89
:102180009B25CBF34809C9F50074A74200DC3C4607
:102190004DE04FF0006101EB85208A142849FFF7DC
:1021A000C9FF00260BE009EB0600254931F81000B5
:1021B0004FF6FF71884200D003E0701C86B2A64241
:1021C000F1DB00BFA6421BDA4FF0006101EB852076
:1021D000FEF706FF002608E03AF8160006EB0901B4
:1021E000174A22F81100701C86B2A642F4DB4FF0A9
:1021F000006101EB85208A14114900F023F804E006
:1022000022465146404600F01DF8A74200D10FE09B
:102210006D1C4FF000090AEB440AA044381B87B23A
:10222000B7F5007F02DD4FF4007400E03C46B0E7F4
:1022300000BFFEF715FF00BF9BE70000000001088C
:10224000940000202DE9F04105460E461746002473
:1022500007E036F814102846FEF70CFFAD1C601C92
:1022600084B2BC42F5DBBDE8F08110B500F002F8A5
:1022700010BD00000CB500200190009033480068AC
:1022800040F480303149086000BF3048006800F4F5
:10229000003000900198401C0190009818B90198F6
:1022A000B0F5A06FF1D12948006800F4003010B1FA
:1022B0000120009001E0002000900098012843D107
:1022C0002348006840F01000214908600846006873
:1022D00020F0030008600846006840F00200086033
:1022E0001A484068194948600846406848600846EE
:1022F000406840F4806048600846406820F47C10E4
:1023000048600846406840F4E810486008460068A5
:1023100040F08070086000BF0C48006800F000705A
:102320000028F9D00948406820F0030007494860B8
:102330000846406840F00200486000BF034840681B
:1023400000F00C000828F9D10CBD0000001002407C
:10235000002002400448006820B103480068401E85
:10236000014908607047000000000020094800682B
:102370000949B0FBF1F0401E4FF0E0214861002018
:102380008861062008610846006920F001000861A4
:10239000704700006400002040420F0010B5134851
:1023A000006840F001001149086008464068104983
:1023B00008400E494860084600680E4908400B492D
:1023C00008600846006820F48020086008464068DD
:1023D00020F4FE0048604FF41F008860FFF745FFBF
:1023E0004FF000600449086010BD0000001002407A
:1023F0000000FFF8FFFFF6FE08ED00E021B10288C3
:1024000042F08002028004E002884FF67F731A4097
:102410000280704721B1028842F00102028004E08C
:1024200002884FF6FE731A400280704770B5002292
:1024300000230024058C4EF6FF7635400584038C7E
:102440008488828B48F6FF752A404FF6FF452A4064
:102450000D884FF6FF7606EA05252A434DF6FF75EF
:102460002B400D8906EA05352B434D8806EA0535D4
:102470002B430B4DA84202D00A4DA84208D14BF67F
:10248000FF752C408D894FF6FF7606EA85152C43A3
:1024900084808283CD88A0F84050038470BD000002
:1024A000002C0140003401400A460021818B4FF28C
:1024B000FF7319404FF6FF7303EA02231943818328
:1024C0007047000030B587B042F210756C100121E2
:1024D0000420FFF7EDFA0020ADF8160040F2CF20FF
:1024E000ADF810000020ADF81200ADF8145004A9AA
:1024F0000F4800F01FF86020ADF800000020ADF894
:1025000008000120ADF80200ADF806406946084811
:10251000FFF78CFF01210648FFF770FF08210448F0
:10252000FFF7C2FF01210248FFF774FF07B030BD7B
:1025300000080040002202881D4B98420ED01D4B1F
:1025400098420BD0B0F1804F08D01B4B984205D079
:102550001A4B984202D01A4B984204D14FF68F730F
:102560001A404B881A43174B984207D0164B984293
:1025700004D04FF6FF431A40CB881A4302808B8861
:1025800083850B8803850A4B98420BD0094B9842F0
:1025900008D00E4B984205D00D4B984202D00D4BFF
:1025A000984201D10B7A0386012383827047000091
:1025B000002C0140003401400004004000080040AD
:1025C000000C00400010004000140040004001409A
:1025D000004401400048014021B1828942F4005288
:1025E000828104E082894DF6FF731A408281704730
:1025F00000B585B001210420FFF76AFA01218803A4
:10260000FFF766FA4FF40070ADF8100018208DF84F
:10261000130003208DF8120004A91448FEF78AFD68
:102620004FF48060ADF8100004208DF8130004A969
:102630000E48FEF77FFD4FF4E13000900020ADF82A
:102640000C000C20ADF80A000020ADF80800ADF831
:102650000600ADF804006946054800F019F80121AC
:102660000348FFF7B9FF05B000BD000000080140B6
:102670000038014002460020B1F5007F00D100BFC4
:1026800013880B400BB1012000E0002070470000D0
:102690002DE9F04786B005460E460024A24600BF4D
:1026A000A1460027B08900B100BF2F462C8A4CF606
:1026B000FF700440F08804432C82AC894EF6F3107E
:1026C0000440B08831890843718908430443AC81D0
:1026D000AC8A4FF6FF400440B0890443AC8201A8A5
:1026E000FFF706FA1F48874202D1DDF810A001E08B
:1026F000DDF80CA0A88900F4004040B10AEBCA0044
:1027000000EB0A1031684900B0FBF1F807E00AEB72
:10271000CA0000EB0A1031688900B0FBF1F86420B0
:10272000B8FBF0F004012009642101FB1089A8899D
:1027300000F4004040B1322000EBC900B0FBF1F0E2
:1027400000F00700044308E0322000EB0910642188
:10275000B0FBF1F000F00F0004432C8106B0BDE89F
:10276000F087000000380140C1F308028280704702
:1027700010B5FEF787F84DE02748007870B10020CB
:10278000264908702648007926490978884201D0F0
:10279000FFF792F824A000F041F910BD1F4801781E
:1027A0000078401C1D4A10700A290FDA01201C49CC
:1027B000087122490871FFF7D3FA322000F0F8F9C6
:1027C000174801791EA000F029F913E001201449EF
:1027D00008711A490871052211493020FFF762FC7F
:1027E000052216492A20FFF75DFCFFF7B9FA64209D
:1027F00000F0DEF91948007830B1082318A203214F
:102800001020FFF730F805E0082318A2032110205C
:10281000FFF729F8B0E700004C0000204E00002030
:10282000400000204F000020466C7920636F6E6EE0
:10283000656374204F4B2121210D0A0045000020C3
:10284000466C61736820726561642053493234526A
:1028500031616464723A25640D0A000004000020AE
:1028600043616C6962726174696F6E00436F6E6E72
:10287000656374696E672E2E2E0000001A4800688A
:1028800040F400701849086000BF00BF00BF00BFDF
:1028900000BF00BF1448001D006840F400701249DA
:1028A000091D086000BF00BF00BF00BF00BF00BF20
:1028B00000BF00BF00BF00BF00BF00BF00BF00BF20
:1028C00000BF00BF00BF00BF00BF00BF00BF00BF10
:1028D00000BF00BF00BF00BF00BF00BF00BF00BF00
:1028E00000BF00BF70470000100C0140184800688E
:1028F00040F400701649086000BF00BF00BF00BF71
:1029000000BF00BF00BF00BF00BF00BF00BF00BFCF
:1029100000BF00BF00BF00BF00BF00BF00BF00BFBF
:1029200000BF00BF0A48001D006840F4007008495D
:10293000091D086000BF00BF00BF00BF00BF00BF8F
:1029400000BF00BF00BF00BF00BF00BF7047000056
:10295000100C014070B506460C4615463046FFF790
:1029600065F92046FFF762F92846FFF75FF970BD69
:102970002DE9F04105462C4640211148FEF765FC43
:10298000002619E0274607F08007802F04D1802118
:102990000B48FEF75CFC03E080210948FEF755FC7C
:1029A0006006040E40210648FEF751FC4021044811
:1029B000FEF74BFC701CC6B2082EE3DBBDE8F081CD
:1029C000000C014010B50446FEF77AFC7820FFF7B2
:1029D000CFFFFEF799FC0020FFF7CAFFFEF794FC3B
:1029E0002046FFF7C5FFFEF78FFCFEF77DFC10BD0C
:1029F00010B50446FEF764FC7820FFF7B9FFFEF738
:102A000083FC4020FFF7B4FFFEF77EFC2046FFF773
:102A1000AFFFFEF779FCFEF767FC10BD0FB4054B66
:102A200010B503A9044A029800F018F810BC5DF82C
:102A300014FB0000F52B00087800002002E008C815
:102A4000121F08C1002AFAD170477047002001E028
:102A500001C1121F002AFBD1704700002DE9FF4F72
:102A600089B09B460446002506E025280BD05A462F
:102A70000B999047641C6D1C20780028F5D10DB08F
:102A80002846BDE8F08F0027B8460122474900E0FC
:102A9000074314F8013F203B02FA03F00842F7D144
:102AA00020782E2819D114F8010F47F004072A289E
:102AB0000ED06FF02F022078A0F1300109290CD838
:102AC00008EB880102EB410100EB0108641CF2E70E
:102AD0000A98641C50F8048B0A9020780028CED005
:102AE000642808D0692806D075281ED05A460B994C
:102AF00090476D1C58E00A994FF00A0901C90A91E4
:102B0000002802DA40422D2102E0390504D52B21AC
:102B10008DF82010012103E0F90704D02021F7E708
:102B20008A4608AE0DE00021FAE70A994FF00A093B
:102B300001C90A91F7E74946FDF742FB303106F833
:102B4000011D0028F7D1ADEB060000F12009780740
:102B500001D44FF00108C84502DDA8EB090000E0F0
:102B600000208046002706E008A85A46C05D0B9961
:102B700090476D1C7F1C5745F6DB04E030205A4619
:102B80000B9990476D1CB8F10001A8F10108F5DC24
:102B900005E016F8010B5A460B9990476D1CB9F1E8
:102BA0000001A9F10109F4DC641C65E709280100B2
:102BB00000B970474FF47A7141430D4A116000210A
:102BC0004FF0E02291611146096941F00101116164
:102BD00000BF074909680029FBD14FF0E0210969CE
:102BE00021F001014FF0E022116100BFE1E7000098
:102BF0000000002070B504460D46E1B20548FFF71D
:102C0000B3FD00BF80210348FFF734FD0028F9D051
:102C1000204670BD00380140FFF7EAFC10A0FFF726
:102C2000FDFEFFF7A3FBFEF79DFCFEF71BFCFDF787
:102C300097FDFEF775FB4FF48070FEF7C5FBFFF7BD
:102C40008FF8FFF73FFCFDF7DFFBFFF791FDFDF786
:102C500097FF03E0FDF7F2FEFFF76AF8FAE70000DE
:102C600075736172742069732072656164790D0AED
:102C70000000000010B50246012000E050430B00A8
:102C8000A1F10104E1B2F9D110BD00000000000083
:102C90000000002F000000000700070000147F1450
:102CA0007F1400242A7F2A1200626408132300364E
:102CB0004955225000000503000000001C2241007D
:102CC000000041221C000014083E08140008083EC1
:102CD0000808000000A060000008080808080000BC
:102CE00060600000002010080402003E5149453E8B
:102CF0000000427F400000426151494600214145A9
:102D00004B31001814127F10002745454539003C0F
:102D10004A494930000171090503003649494936DD
:102D200000064949291E00003636000000005636CC
:102D300000000008142241000014141414140000B0
:102D40004122140800020151090600324959513E3E
:102D5000007C1211127C007F49494936003E4141F6
:102D60004122007F4141221C007F49494941007FA7
:102D700009090901003E4149497A007F0808087F96
:102D80000000417F4100002040413F01007F0814C6
:102D90002241007F40404040007F020C027F007FC4
:102DA0000408107F003E4141413E007F09090906A9
:102DB000003E4151215E007F0919294600464949DC
:102DC00049310001017F0101003F4040403F001FA9
:102DD0002040201F003F4038403F00631408146328
:102DE00000070870080700615149454300007F4112
:102DF000410000552A552A55000041417F0000043A
:102E00000201020400404040404000000102040072
:102E1000002054545478007F4844443800384444D7
:102E2000442000384444487F003854545418000863
:102E30007E0901020018A4A4A47C007F0804047881
:102E40000000447D4000004080847D00007F102809
:102E500044000000417F4000007C04180478007C9E
:102E60000804047800384444443800FC242424181E
:102E70000018242418FC007C08040408004854545A
:102E8000542000043F444020003C4040207C001C73
:102E90002040201C003C4030403C00442810284486
:102EA000001CA0A0A07C004464544C4414141414CE
:102EB00014140000000000000000000000000000EA
:102EC0000000000000F800000000000000333000A7
:102ED000000000100C06100C0600000000000000AE
:102EE000000040C07840C0784000043F04043F0424
:102EF0000400007088FC08300000001820FF211E2C
:102F00000000F008F000E018000000211C031E2162
:102F10001E0000F00888700000001E2123241927DD
:102F2000211010160E00000000000000000000003C
:102F30000000000000E01804020000000007182054
:102F4000400000020418E0000000004020180700C4
:102F50000000404080F0804040000202010F01026A
:102F60000200000000F0000000000101011F01014B
:102F70000100000000000000000080B070000000B0
:102F8000000000000000000000000001010101013C
:102F900001010000000000000000003030000000CF
:102FA00000000000000080601804006018060100A6
:102FB000000000E010080810E000000F10202010B2
:102FC0000F00001010F8000000000020203F20201B
:102FD00000000070080808887000003028242221B2
:102FE0003000003008888848300000182020201168
:102FF0000E000000C02010F8000000070424243F49
:10300000240000F8088888080800001921202011F1
:103010000E0000E0108888180000000F1120201119
:103020000E0000380808C83808000000003F000003
:1030300000000070880808887000001C22212122EE
:103040001C0000E010080810E000000031222211EE
:103050000F00000000C0C000000000000030300081
:103060000000000000800000000000008060000000
:103070000000000080402010080000010204081039
:103080002000404040404040400004040404040448
:1030900004000008102040800000002010080402F6
:1030A0000100007048080808F000000000303601F8
:1030B0000000C030C828E810E000071827242314B7
:1030C0000B000000C038E0000000203C2302022773
:1030D000382008F8888888700000203F20202011C0
:1030E0000E00C030080808083800071820202010FB
:1030F000080008F808080810E000203F20202010F1
:103100000F0008F88888E8081000203F20202320BE
:10311000180008F88888E8081000203F2000030005
:103120000000C03008080838000007182020221EC0
:10313000020008F808000008F808203F21010121DA
:103140003F20000808F8080800000020203F202049
:10315000000000000808F8080800C08080807F0098
:10316000000008F888C028180800203F20012638F1
:10317000200008F8080000000000203F2020202048
:10318000300008F8F800F8F80800203F003F003F42
:10319000200008F830C00008F808203F2000071879
:1031A0003F00E01008080810E0000F102020201059
:1031B0000F0008F808080808F000203F210101016D
:1031C0000000E01008080810E0000F182424385010
:1031D0004F0008F8888888887000203F2000030C82
:1031E000302000708808080838000038202121228B
:1031F0001C00180808F8080818000000203F2000EC
:10320000000008F808000008F808001F202020200F
:103210001F000878880000C83808000007380E0131
:103220000000F80800F80008F800033C0700073C1D
:103230000300081868808068180820302C03032CCD
:1032400030200838C800C83808000000203F20009F
:10325000000010080808C83808002038262120205F
:103260001800000000FE020202000000007F404043
:103270004000000C30C000000000000000010638D3
:10328000C00000020202FE000000004040407F003B
:103290000000000004020202040000000000000020
:1032A000000000000000000000008080808080801E
:1032B0008080000202040000000000000000000006
:1032C000000000008080808000000019242222225B
:1032D0003F2008F8008080000000003F11202011EE
:1032E0000E000000008080800000000E11202020D1
:1032F0001100000000808088F800000E11202010CE
:103300003F200000808080800000001F22222222B7
:103310001300008080F0888888180020203F20203B
:1033200000000000808080808000006B9494949363
:10333000600008F8008080800000203F210000200D
:103340003F2000809898000000000020203F2020AF
:103350000000000000809898000000C08080807FFE
:10336000000008F8000080808000203F24022D30FB
:103370002000000808F8000000000020203F202066
:1033800000008080808080808000203F20003F20DF
:10339000003F8080008080800000203F21000020CE
:1033A0003F200000808080800000001F202020201F
:1033B0001F00808000808000000080FFA12020117D
:1033C0000E000000008080808000000E112020A0F0
:1033D000FF80808080008080800020203F212000AE
:1033E0000100000080808080800000332424242499
:1033F0001900008080E0808000000000001F202075
:1034000000008080000000808000001F202020102D
:103410003F20808080000080808000010E30080600
:10342000010080800080008080800F300C030C3011
:103430000F0000808000808080000020312E0E313F
:103440002000808080000080808080818E7018063F
:10345000010000808080808080000021302C2221AB
:10346000300000000000807C020200000000003FED
:10347000404000000000FF00000000000000FF00CE
:1034800000000002027C800000000040403F00007D
:103490000000000601010202040400000000000018
:1034A000000010D0FF9010804828090E0828488896
:1034B00000000300FF00018080432C102C4380801B
:1034C0000000020CE04020F84F4849FE48484808F8
:1034D0000000047F000000FF2222223F222222203F
:1034E000000000F8888888880808FF08090AC808CA
:1034F0000000601F0010201F80402116182641F890
:1035000000000808F80808081010FF101010F0005C
:10351000000030101F088848300E014080403F00F6
:1035200000001010FF1010F00000F8080808F80064
:10353000000040300F40807F00007F2020207F006F
:1035400000004042CC0004F49494FF9494F40400EE
:10355000000040201F20484442415F41424448400F
:10356000000000FC242424FC252624FC242424041C
:103570000000308F80844C55252525554C80808057
:103580000000FE0222DA0620D808090E0888281852
:103590000000FF08100807003F4444424140780003
:1035A0000000F808FF08F8003EAA6A3E2AAA3E007A
:1035B000000063211F11394829098DFB09082C5887
:1035C00000008060F807001CE0010600E01E00001B
:1035D00000000000FF00804020130C13204080807A
:1035E0000000104C4754545454545454D404040010
:1035F0000000000000000000000000000F3040F05C
:10360000000000FE0282828282FA8282828282022C
:103610000000601F40404040407F404044584040D0
:1036200000004042CC0040404040FF40404040400D
:10363000000000007F2010000000FF0000000000DC
:103640000000E45CC40008C8398E0808CC3B880838
:1036500000003F103F00635A46E100635A46E10014
:1036600000001010101010FF1010101010F00000CB
:10367000000080402018060100204080403F0000EC
:1036800000004042CC0040404040FF4040404040AD
:10369000000000007F2010000000FF00000000007C
:1036A00000000000E28282828282828282FE00002A
:1036B000000000003F4040404040404040404078D3
:1036C000000080828282FE8282828282FE828282E8
:1036D0008000008040300F0000000000FF0000006C
:1036E0000000000000FC4444444546444444447CFB
:1036F00000004020180700FC44444444444444FC77
:1037000000000000E28282828282828282FE0000C9
:10371000000000003F404040404040404040407872
:103720000000001011161010F010101413100000FB
:10373000000081414121110D030D11214141818181
:103740000000F80122202222A2FA22222202FE00F8
:103750000000FF0008040211201F000040807F00CD
:10376000000004040484E43C2724242424E4040406
:10377000040004020100FF0909090949897F0000CA
:1037800000000000106004180000FF0000000000AE
:10379000000081814141211109070105091121C161
:1037A00001001010D0FF9014E4AFA4A4A4AFE4046F
:1037B0000000040300FF00894B2A1A0E1A2A4B88C6
:1037C0008000101090909090901010FF1010111623
:1037D0001000002060203F10101000030C1020404B
:1037E000F8000040424242C27E42C2424242404051
:1037F0000000804020100C0300003F40404040701B
:1038000000000000106004180000FF00000000002D
:10381000000081814141211109070105091121C1E0
:1038200001001010D0FF9014E4AFA4A4A4AFE404EE
:103830000000040300FF00894B2A1A0E1A2A4B8845
:103840008000101090909090901010FF10101116A2
:103850001000002060203F10101000030C102040CA
:10386000F800C04070507040C00000000000000030
:1038700000007F55405540557F00000000000000CB
:103880000000040C14FC140C04000000008000E094
:1038900000000000007F00600078007E007F007F55
:1038A0000000040C14FC140C040000000080000054
:1038B00000000000007F00600078007E007F0000B4
:1038C0000000040C14FC140C0400000000000000B4
:1038D00000000000007F00600078007E0000000013
:1038E0000000040C14FC140C040000000000000094
:1038F00000000000007F0060007800000000000071
:103900000000040C14FC140C040000000000000073
:1039100000000000007F00600000000000000000C8
:103920000000040C14FC140C448000000000008013
:1039300040000000007F00004020110A040A11200E
:103940004000000064390008000000207C000000F6
:103950003C2A0008E03900087C00002044080000F0
:103960004C2A0008000000000000000000000000D9
:103970000000000000000000000000000000000047
:103980000000000000000000000000000000000037
:103990000000000000000000000000000000000027
:1039A00000000000344310100134431010010000E7
:1039B00000000000000000000102030401020304F3
:1039C000060708090204060800A24A0400000000D5
:1039D00000000000010203040607080900000000BF
:04000005080000ED02
:00000001FF
